:20000000004100202532000001C9011001C9011001C9011001C9011001C9011001C9011006
:1C00200001C9011001C9011001C9011001C9011001C9011001C901103FC9011089
:20003C002DE9FF47C34C0F460646F80B80F05881B80880F04981607ADFF804A3B90F80F0C2
:20005C00CB80E079390914D2B80BC0F06A8104F13C0003F05EFE061C08D0706830B175684A
:20007C00F068B6F9241000222023A84727F4005757E1012800F0AB80E068703003F039FED5
:20009C00684603F037FA20B1009904F1980003F0CBFD00254FF00108E570A74884F805800E
:2000BC0003F0E0FDA5492A4604F1600003F029FE50460068006B80476061A2782169A369E6
:2000DC00012AA0EB010018444FEA1030A06105D163781BB9E169B0EBC12F3AD9DFF864923D
:2000FC0084F80280A9F1150000686570000A30D340F60900A08494F8310000F0F00040F0BD
:20011C00010084F8310094F8300000F0F00084F83000A56203F0EFFD4B4603F6FF72116873
:20013C006FF0020C21F00201116004F12401C3F8FBCF854AC3F8EB1F11688908FCD3C3F8EA
:20015C00FBCFD3F8FF1F41F00201C3F8FF1F00F005F97E4A10687E4920F00200256140F402
:20017C0000701060032341F8043C41F230038B604046086050238B6008604FF4CA638B6084
:20019C000860237841F80C0C15601BB9E068383003F0C3FD022003F0C9F9112001F05AFFF1
:2001BC00307C10B90E2001F055FF207A18B12572052003F0BBF9674965710878A57140B168
:2001DC000D7004F1BC00042103F0ADFD01E00020E07127F00807A4E020B1042003F0A6F990
:2001FC0000206072B168088840F602084FF0000980450AD0B0F5C15F07D00A8B4FF61F602C
:20021C00104040F43470088306E00A8A4FF61F60104040F4347008822069F0B1DAF85400CF
:20023C00016804208847C0B1DAF800002569006B8047F168401B738AF060020BF260981833
:20025C008842F06002D240184008F06040F6C41181422CBFB0F5FA7FF16094F8310010F0BF
:20027C000F0F0CD1718C08F10700884207D1B56930466FF480714A464FF00073A847364930
:20029C0004F160004A4603F03CFD607860B10220ADF8040001A803F079FABDF80C0084F831
:2002BC0001904011A4F860010120E07084F8049002F02CFE7569494630464FF080630A4651
:2002DC00A84727F000572CE001F0F2FC04F1440003F01FFD27F0020708B147F0020720E059
:2002FC0003F009FD014604F1400003F012FD061C12D0356AA8080FD225EA05003062084643
:20031C0000F02CF8706850B12A46F068B6F9241075680023A84702E0084600F01FF827F4E8
:20033C00804727B104F1BC00394603F0FCFC0090BDE8FF8740110020150F00006D380000F2
:20035C008C0100101500044010100440000004600C41044085180020ED160000DFF800F0AB
:20037C0061C00110BB482DE9F84F0025BA4CB849056094F8E200002800F06581012800F0B9
:20039C002F81B64E02283CD0032840F05C8151F8250CD4F8B8100029A0F5C060C4F8D400A3
:2003BC00B8BF49420028B8BF4042814226DA4FF08057D7F8A4014568B4F8BC0030214FF408
:2003DC007F42082300903046A847D7F8A4014568B4F8C00004214FF4F802122300903046F6
:2003FC00A847D7F8A401B4F8D070456820214FF440620A2330460097A847012584F8D850CC
:20041C001CE151F8258C03F039FC2F4600B901273946934F38680028FCD0B146012609F13E
:20043C000409D9F82CA03E6009B103F02DFCCAF30720C4F8BC0003F021FCAA4600B9B24675
:20045C003B68002BFCD0D9F800B0BAF1000F3E6001D003F019FCCBF38440C4F8C00003F043
:20047C000DFCAA4600B9B2463B68002BFCD0D9F81C90BAF1000F3E6001D003F005FCC9F3C6
:20049C008120C4F8D000B8F5C061C4F8B81000F09C8094F8D80068B9C4F8D410D4F8C00004
:2004BC00C4F8C800D4F8BC70C4F8C470D4F8D030C4F8CC30D4F8D410D4F8BC30002954BF8C
:2004DC0002206FF0010004F1C802176801EB41014018411000EB917107EBA1001060D4F8AD
:2004FC00C810C4F8C43000291CDD1E293CDDD4F8CC0030B93429B4BF15391E21C4F8C81064
:20051C0025E02A29BABFD4F8C8000B381E20C4F8C800D4F8C4003F28B4BF401C3F20C4F874
:20053C00C4001FE0D4F8CC00032812D011F10B0FC6BFD4F8C8000B30301CC4F8C800D4F82B
:20055C00C4000028C4BF401E051CC4F8C450032508E011F1150FC6BFD4F8C8001530301CE1
:20057C00C4F8C800C4F8CC504FF08057D7F8A401B4F8C43030214FF47F42456837480093C5
:20059C000823A847D7F8A40104214FF400321123456832480096A847B4F8C860D7F8A401EF
:2005BC0004214FF4F802122345682C480096A847D7F8A40120214FF440620A23B4F8CC6043
:2005DC00456826480096A84701E084F8D85040F2FF50404502D8801C40452FD2082030E0A0
:2005FC0051F8251C1F4F4BF2F5204843060A3868C0F3814001280CD11B48006800688047E6
:20061C0002F0C8FE03F046FB3111C010484306EBE03694F8E50030B91448006820F07F4041
:20063C008019460801E084F8E5501148310C0660012741600F4D8760287808B90B2000E0B1
:20065C00052084F8E40001F021F9BDE8F88FC0462D400C402C500C408C08002000A00C409B
:20067C0000800C40B43F0050EC010010102009403C600C40494000002DE9FE4F05467F48F3
:20069C00002400680094C0090ED37D48007858B97D497C4851F8112C104040F0817041F86C
:2006BC00110C202002F0D2FD012D40F0E280DFF80892D9F8DC00012840F0D8800220C9F88E
:2006DC00DC0003F0FBF8012002F0C0FD5FEA000805D00120C9F8DC0003F000F9CBE003F0FE
:2006FC001EFBA34602906948694DC0F800B0A86A016801208847012804D1584602F0EAF99F
:20071C00012000906348644FC0F800B03868112003F0CCFA00B10124102003F0C7FA08B149
:20073C0044F002040F2003F0C1FA08B144F004040B2003F0BBFA20B12868584E016B308893
:20075C0088470A2003F0B2FA20B12868544E016B308888475348012606602868816944F019
:20077C00200088475048066003F09AFA00F001010191400814D2286A81684C488847824691
:20079C00BAF1040FF7D0BAF1010F04D1286A42684648032190474649086820F003000860E9
:2007BC00584600F0A7F92B683868986B8047019801280CD0BAF1010F04D1286A42683B4805
:2007DC00314690473A49086840F0030008603148066028684169204688470B2003F066FA55
:2007FC0020B128682D4BC16A188888470A2003F05DFA20B128682A4BC16A18888847294815
:20081C0006600322C9F8DC20274BC3F800B02868416B204688470128F9D13868042002F07D
:20083C0015FD0446194806603868144800688009FBD30098012802D1304602F04BF903F08B
:20085C0023FA082002F002FD07460298C9F8DC6000F034F81748008802F060F803F03EF8EC
:20087C0057EA040018BF4FF0FF3804E06FF0040801E06FF001084046BDE8FE8F141009400D
:20089C0074090020FFFFFCFC150009400C400940B8010010000222432C2009406E3F000044
:2008BC006A3F000028200860800104430040034024220840444000008C080020DFF800F0EB
:2008DC0005B301102DE9F04F07467A4802687A4801784FF0010BADF14C0D0BFA01F10A42A5
:2008FC0044D082460AF1100EBEF80000B0F5C15F2DD1DEF81400DEF81860704CDEF81C5038
:20091C00DFF8BC810E9003220DF1340C0F9620681095C0F303695CF8046FB6B10021341F13
:20093C0005200B4654F8045FA84506D0401E01F1040103F10103F5D107E0052B05DA7058E2
:20095C0020F4702040EA09407050521EE3D1DFF87481C8F8E0E0C8F8DCA003F0CCF95A4C9A
:20097C001190207820B11198FFF7F8FC00209DE001F008F95549086840F0020008600AA8D5
:20099C0003F03AF94FF0050904F1BC000AAA5049CDF8309002F01CFD0AA803F025F9002552
:2009BC004FF0FF0A04F1600019210AAB8DF83050484ACDF82CA002F0CDFC0AA803F01CF9F2
:2009DC0004F1F0000AAA4449CDF8309002F000FD0AA803F009F95E46CDF82CA004F17C0014
:2009FC001A210AAB3D4A8DF8306002F0B3FC3C492A4604F19800134602F054FB394803F01E
:200A1C0031F9394A2B46042104F14C0002F0D2FE4FF6FF70A4F86001A57025716571A5712C
:200A3C00E5712572657225612378C4F81C90581C207011986670FFF791FC1FB903AF38463F
:200A5C0003F090F8444684F8E9607B68C4F8E4303868C4F8D8003A7C84F8E820798AA4F8F0
:200A7C00EA10224BFE68C4F8F030C4F8EC300EB1C4F8F060BF680FB1C4F8EC702946782206
:200A9C00D83404F1200001F099FE294604F1380002F0F8FD684603F01BF92A466B461449DB
:200ABC00029404F1700002F0FDFA204613B0BDE8F08FC046D4210840000B002054130050C4
:200ADC000200F8440802002040110020002009400D3B00006D3800009522000045260000A9
:200AFC00253C0000150F0000293000004B280000F33C00002DE9F84FDFF8F4B10746ABF198
:200B1C003500DFF8E0910068800880F0D98071480068006880477A490831D1F800800025C9
:200B3C004FEA28725FEA985102F101020AD2C0F13E0110F10A0F4FEAE101D8BF08218A4211
:200B5C00B8BF0A1C644BD3F87C11C1F304611629A8BF20391B68C3F30443162BA8BF203B3A
:200B7C009A468918162905DA11F10A0FB8BF6FF0090100E01521594B594E01F01F0242F416
:200B9C00F8521A80326812F0030F18BF0125D20828BF45F002050FB145F004054A4692F994
:200BBC000730C31A052B04DA9379AB4208BF918866D0DFF834E10F28A0F10F0C25DB0CEB22
:200BDC000013A3F1F00C4FEA2C26072E88BF07263446062C88BF06245EF82470042303EB06
:200BFC0084037446E358DB1B03F0FF04EF0824BFC3F307273C44AF0824BFC3F307473C4415
:200C1C006F0828BF04EB136401E0002426465EF826E0EF080EF0FF0324BFCEF307273B44DF
:200C3C00AF0824BFCEF307473B446F0828BF03EB1E63A4B2ACEB0626AAEB01017443002913
:200C5C0004F1800403EB1423D8BF0121342408F0FF074C43A1B27943B1FBF3F14FF6FF73E6
:200C7C008B4238BF191C802889B2918005DA10F1800FB8BF6FF07F0000E07F20D0719571E1
:200C9C001A4800681F2910604FF0000008D340F2FF128A4206D24908401C8A42FBD301E08D
:200CBC001F219180134F0F39090940EAC10047EA0001CBF8FB1F0026CBF8FF6FBDE8F88F8E
:200CDC000D490E4F4A4608200F60921D1070BDE8F88FC046EC0100103C1100506E6208400B
:200CFC00242208406C1800209C130050082009403500094000E7A48030100940FDFDA40086
:200D1C00AC3F00502DE9F0411C4615468C4208BF854282BF00230022E5E0002C08BF002DB1
:200D3C000AD100290EBF00286FF000006FF0000100F0E1F8BDE8F0815FF000085FF0000E4C
:200D5C00002C08BF8D429CBF2C1C0025070C47EA01470E0CB44208BFBD429EBF5FEA04449D
:200D7C0044EA15445FEA0545070A47EA01670E0AB44208BFBD429EBF5FEA042444EA15644A
:200D9C005FEA0525470847EAC1774E08B44208BFBD4200F29380870847EA81778E08B442B1
:200DBC0008BFBD427CD8C70847EA4177CE08B44208BFBD4266D8070947EA01770E09B442AF
:200DDC0008BFBD4250D8470947EAC1674E09B44208BFBD423AD8870947EA81678E09B44205
:200DFC0008BFBD4224D8C70947EA4167CE09B44208BFBD420DD8E60146EA5566EF01B1423F
:200E1C0008BFB84201D3C01BB14158EB08085EEB0E0EA60146EA95664FEA8517B14208BF3B
:200E3C00B84201D3C01BB14158EB08084EEB0E0E660146EAD5666F01B14208BFB84201D389
:200E5C00C01BB14158EB08084EEB0E0E260146EA15762F01B14208BFB84201D3C01BB1419A
:200E7C0058EB08085EEB0E0EE60046EA5576EF00B14208BFB84201D3C01BB14158EB080826
:200E9C004EEB0E0EA60046EA9576AF00B14208BFB84201D3C01BB14158EB08084EEB0E0E54
:200EBC00660046EAD5766F00B14208BFB84201D3C01BB14158EB08085EEB0E0EA14208BF0F
:200EDC00A84201D3401BA14158EB08085EEB0E0EA34208BFAA423EBF2D0A45EA0465240AB1
:200EFC0089D3734642461E4617460B46024631463846BDE8F0817047B0B5324C0D46A80837
:200F1C0042D2E8085DD301250420657202F05CFB2D480068006B8047206104F1380002F068
:200F3C00F8FE00280EBFE068C068E0604068274900780860022002F047FB112001F042F94F
:200F5C00E1682571087C10B1A078012803D00E2001F038F9E16849681D488F680FB9CF6898
:200F7C001FB10021C1611B4F07601B4A40F2FF7111600027876119494161194802F072FE23
:200F9C00192002F0BAFEB0BD00F092FE04F1440002F0BFFE25F0020504F1380158B9E80832
:200FBC0003D2084602F0B5FE58B104F1980002F0A0FE042101E045F0020104F1BC0002F046
:200FDC00B2FEB0BD401100208C010010D02108400010044051000706000004600200004039
:040FFC0011150000CB
:20100000B41200001810000015AB0110FDB301106DC00110FDAE011099B5011059BA0110D3
:0810200039BA01102B00000099
:20102800B01200003C100000B1C00110A9BF011067C0011069B80110B9B9011099B901104F
:041048003100000073
:20104C00B012000060100000BDC00110CDB30110D9BD01106DB301108DB80110D9B9011062
:04106C00320000004E
:2010700000000000C80C002004000000000000000000000020000000E8C901103000000056
:2010900028100000D00C00200400000000000000000000000C000000D8CA01101800000031
:2010B0004C100000D80C002004000000000000000000000024000000F0CA011018000000B5
:2010D00000000000E00C00200400000000000000000000001000000018CA01102C000000C1
:2010F00000100000E80C0020040000000000000000000000200000006CCA0110240000002D
:20111000FFFFFFFFF00C00200400000000000000000000002800000090CA011024000000EC
:20113000FFFFFFFFF80C00200400000000000000000000001400000008CB0110180000006B
:20115000FFFFFFFF000D002004000000000000000000000058000000B4C901103400000038
:20117000FFFFFFFF080D00200400000000000000000000001000000020CB01101800000006
:20119000FFFFFFFF100D00200400000000000000000000001C000000B4CA01102400000033
:2011B000FFFFFFFF180D00200400000000000000000000003800000044CA0110280000005B
:2011D000FFFFFFFF200D00200400000000000000000000005400000078C901103C000000D0
:0811F000020000006C40000049
:0411F80001000000F2
:0411FC0000000E00E1
:0412000000000F00DB
:0412040032000000B4
:0412080001000000E1
:04120C00780C00203A
:0412100000020000D8
:0412140000000000D6
:0412180001C90110F7
:04121C0000000000CE
:0412200000000000CA
:0412240008000000BE
:0412280000002100A1
:04122C00400B002053
:0412300001000000B9
:04123400900C0020FA
:0412380008000000AA
:04123C00C80B0020BB
:0412400000000000AA
:0412440000000000A6
:04124800080000009A
:04124C00000000009E
:04125000000000009A
:041254000000000096
:041258000000000092
:04125C00010000008D
:04126000780B0020E7
:041264001000000076
:041268000100000081
:04126C00200A002034
:04127000000000007A
:041274000000000076
:041278000002000070
:04127C00000000006E
:02128000290043
:02128200010069
:02128400250043
:02128600310035
:02128800320032
:02128A002B0037
:02128C0001005F
:01128E00015E
:081290000300000060400000B3
:0812980000000000000000004E
:0412A0000000010049
:0412A4000000030043
:0412A80013C401105A
:0412AC00553B0000AE
:0412B000B812000070
:0412B400B81200006C
:0412B8000000000032
:0412BC00900C002072
:0412C000E33B00000C
:0412C4002000000006
:0412C8004C40000096
:0412CC00D43F00000B
:0412D00029C101101F
:0412D400E3350000FE
:0412D800A737000034
:0412DC00A1C7011095
:0412E000A3C701108F
:0412E4000200000004
:0412E8008E40000034
:0412EC00A43F00001B
:0412F000BC3F0000FF
:0412F4008C3F00002B
:0212F8000200F2
:0212FA000900E9
:0212FC000100EF
:0212FE000000EE
:0113000001EB
:04130400A93B000001
:04130800A13400000C
:04130C009138000014
:041310007D35000027
:04131400B1350000EF
:041318009931000007
:04131C00C5280000E0
:04132000733C00001A
:04132400192E00007E
:04132800533D000031
:04132C00573D000029
:201330002DE9F04FADF11C0D00F032FC6848007802F098F97149674D84390A6800240328CC
:2013500003D1C2F3033009281DD04FF0FF30012808D90A3810D0801E04D0401E0FD0401EFC
:201370000AD010E00868C0F3024006280BDA022809D10120044604E005201F2401E003205C
:201390000724686000E06868534A1168C1F38151012906D152F80C1C01270A0E07FA02F157
:2013B0000C434E490F68544907F07F073F187A1E2A60FF237F1E01F8013BFAD1484909686C
:2013D000002701F0FF03FE2B20D0DFF814C18E463B4601260EF0FF01FF2910D08A4205D3F8
:2013F000884203D806FA01F10C4201D002206BE00F430EF0FF01DFF800E10EF801305CF827
:2014100004EF5B1C0EF0FF01FE29E5D1092000F0DFFE33480121A86005F1280002F038F99B
:2014300005F19806A8464FF0010A4FF0040B0025A9460AFA05F0044216D1074204BF05F047
:20145000FF0141F4C04104D02B482549405D51F82010244800F096FDE8B24FF0FF3102F091
:20147000A3FAC6F8009001E0C6F800B0D8F800006D1C361D8542DCD904A802F0BBFBFF2087
:20149000102104AB184A059008F10C0001F068FF684602F0B7FBCDF808901449CDF80C909B
:2014B00008F164006A4601F099FF114951F80D0C20F4F85040F4005041F80D0C0D4FC1F883
:2014D000FFAF4846C7F800A007B0BDE8F08FC0468618002078070020B43F00504413005039
:2014F000FC3F0000007FC767D5390000F13200000D30094008000940BC070020181300508E
:201510002DE9F04F6C4CE2680746880FADF1140DC0F0CF805068406808B18047E2685168DF
:20153000664E886808B9CD6875B13568002DFCD00022326010B18047E0684168C86800B137
:2015500080475F4802F028F94FF00008C6F800805C4846F81C0C5C4802F08AFB40F60A0907
:20157000A4F82490A378A4F82680BD6894F83000C34604F1240A00F0F00084F83000012BE9
:20159000C4F828B094F83100A5F8028000F0F00040F0010084F8310001D17B7CABB1B868C8
:2015B0000088A9F10801814208D0B0F5C15F05D0298B4FF60F400840288304E0298A4FF6A4
:2015D0000F400840288287F811804048016883680193C368406B00911022694620F078402A
:2015F00040F0805003903A48029300F041FF494600E01D466B6813B118888142F9D1C5F8AE
:2016100004A0687B00F0F000687304F1380002F086FB80680088A9F10701814220D0491CAE
:2016300081421DD03B8CEBB197F82C0097F82D30C7F824B000F0F00087F82C0003F0F000DF
:2016500040F0010087F82D0007F12002A2629AF80D00A7F8228000F0F0008AF80D0001E04F
:20167000C4F8108030680028FCD0C6F80080B968237A0A8A4FF6FF301040088283B915480B
:20169000006801680120884701280FD0687B00F0F00040F0010068730F4802F0E9FA05E091
:2016B00001F03EFE0028FBD002F037FBB86846F81C0C05B0BDE8F08F401100201C10044096
:2016D0000100070601010E043D0000004C13005018000021E0010010012D00002DE9F84F37
:2016F000694CE76B02F0C2F96A4D002F4ED081081BD207F110020CCA002102400B4008BF57
:20171000002A43D03A693E6A10403043386207F1180696E80C002764194307F118061043E4
:2017300086E803004FF480412CE039693E6A07F1180341F0020108403043386293E80003B4
:201750000022002607F1180340EA080046EA090183E803003E69E2632B46A3F1100000F152
:2017700008031968B14307F11006196096E8000301684B4699430160394604F1440001F0F1
:20179000BBFC022104F1BC0002F0D3FAAB46002601254FF002094FF0110AA846F0B202F08C
:2017B0001FF9071C30D0B87C01282DD1ABF11400797C0368113105FA01F223EA02010160CE
:2017D000797C4268113105FA01F111434160787C08FA00F0C0B202F011F9F868002101F06C
:2017F00083FF812808BF87F8129081280CD0787C94F862110AFA00F0084384F8620100210F
:2018100004F1F00002F095FA761C032EC6D3204802F085FA0746E06B002832D167B3684692
:2018300001F0A6FB30B1009820B1082000F08AFFBDE8F88F082002F0E1F814493869A1F16C
:201850000802136807F110061843106096E80C0051F8102C181C104341F8100C00250D609D
:20187000B86841F81C0C0F68002FFCD0084802F015F9E063BDE8F88F04F1BC00494602F074
:2018900058FABDE8F88FC046401100201C100440781100201C1004402DE9F843614C5A4D15
:2018B0005A4EDFF870815E4F94F8E4100846401E0B2864D8DFE800F07B2C4306234306232A
:2018D00043067664042907D001220A2945F8212C14BF0220032004E0202045F8210C01202A
:2018F000024684F8E200002045F8390C0827C5F8FF7FC5F8F37F45F8392CBDE8F883052907
:2019100014BF09200620002784F8E400376075E094F8E170383D0120002FC5F81B0004BFE5
:201930000620002102D00021F160032084F8E400032045F8010C3160306880085ED294F8AF
:20195000E4103348012703290ED00068456800216022052300914046A84794F8E400062852
:2019700014BF0A200720CFE700684568002160220523022000904046A8470420C4E7FEE7C2
:201990002548264F0026012506600E203D6000F067FB022001F0D0FD84F8E45084F8E36037
:2019B000BDE8F883002038600C25786024E04FF08059D9F8A0010168202088472C3D0F2098
:2019D00045F8010C41F61D56C5F80360D9F8A401466800214FF4C0720723022540460095BD
:2019F000B047D9F8A401C66800214FF4C07207234046B0470120386084F8E45004F1780029
:201A100002F07BF9BDE8F88339400C4038600C40A401001000A00C402C500C4004800C404E
:201A300034600C408C0800202DE9F04FADF12C0D684602F09DF86846FEF74AFF4A4C60605F
:201A500001F03EFA00264FF0010BA0468146474DDFF81CA108963046099098F80070DAF888
:201A7000380037B9444981601F27877188F800B005E0424981601F27877188F800603D485E
:201A9000D8F804708144CAF8309002F03AF93C4C0A90082094F8273033F07F034FD107F19C
:201AB000700002F02CF9B5F94800364B401C6FF31F30A5F84800A36084F82660334A6260E2
:201AD000B5F848003146A08404F11002E760304682E8030084F8276004F1180383E80300B4
:201AF000294807AA214601F007FB00282BD0A08CA7F8940097F89600012804BF87F8966052
:201B10006E709DF81C3094F8270040F0800084F827003BB1AB792BB1EB781BB185F807B0A1
:201B3000AE716E700A98FEF71FFC9DF81C0018B1EB6B0BB901F0F0F9B4F9241008E0401E51
:201B500004F12804A6D10A98FEF70EFC6FF00101384600F0A7F93746022210400F4008BFC6
:201B700000287FF47AAFFEE70802002040110020000B0020400D03002F0200201002002013
:201B9000A8120020280B002078110020752E00002DE9FF47484C94F8E700002876D13D4865
:201BB00001273D4D006884F8E770EE7C84F8E6606B68C4F81031C0F3801084F8E8006846D7
:201BD00002F08CF8002604F10C0001966B468DF8006032490296324601F06AFA304904F1DD
:201BF00030006B46324601F063FA2E4904F154006B468146324601F05BFAA96838468847DA
:201C1000DFF8B08028482A7D08F104030078284D1868C0F3815A22B1BAF1030F04D184F8BA
:201C3000E170BAF1030F17D0BAF1020F14D0BAF1010F0ED0022001F0CDFC1C480068016855
:201C500004208847012804D028683221B1FBF0F10DE001F0E1FB12E0022001F0BBFCBAF1F3
:201C7000030F0CBF4FF47A7142F210712868B1FBF0F1484602F03FF8484602F03EF8404684
:201C90000068C00802D2304601F0A4FC00200090BDE8FF871410094034400000CF2E000070
:201CB0003D230000A929000086180020E00100107C180020B03F00508C0800202DE9F04145
:201CD0003C4C243C04F14408404602F028F8071C6DD0B86840F603022026531C02E0406839
:201CF000761EF6B260B15EB101888A4218BF8B42F5D1F9682CC820312CC149C881E8490063
:201D10003A6A00253D627868D0B197F8270042F00202002300F00700401E09D0401E04D07B
:201D3000801E08D14FF0805304E04FF0804301E04FF000532A467E68F868B7F92410B04720
:201D500001F0DFFF0646B4F94A00401C6FF31F30A4F84A00606C80F82750404601F09EFEA0
:201D70003046FEF701FBF868B0F99410B4F94A2091421CD190F89670A7B9076897B1E26879
:201D90000D4912680968B2F1FF3F10D0B7FBF1F2012A8CBFB7FBF1F10121703001F04AFF96
:201DB000BDE8F08180F89650082000F0CBFCBDE8F081C046641100207C180020F8B501F0BD
:201DD00063FF00F0F9FE01F071FF054605F00C000C2854D0E80826D201F0B2FC2A4E376807
:201DF00004460120014601F0CFFD31686143884219D22649F020B0FBF7F0241A887C18B156
:201E1000C868A04238BF041C214D2146284602F03DF8284602F036F80120FEF733FC2846DE
:201E300002F02CF82DE0280929D21A4CA4F1200620688168184888470746042FF8D01748DB
:201E5000690905D227B101460A6822F0010203E001460A6842F001020A6098310A6842F0DB
:201E700003020A6030688169202088470C4C37682068B86B804701202060206801E001F0EE
:201E900036FF01F007FFF8BD804000003440000098080020D8010010004003408C210840FC
:201EB0002C2009402DE9F04104460D1C44BF0020011C62D401F039FF80468021284601F05E
:201ED000A1FB071C04D097F8270030F07F0003D14046FEF7F9FC4EE097F8270010F0070FCC
:201EF00041D107F1180003C84FF0E045022615EA010306EA000008BF00281ED04046FEF70E
:201F1000E3FC07F1180003C804F168023040294004F1680682E8030096E80C0007F1180550
:201F300095E8030007F118069943904386E80300683494E80300BDE8F081114879688842A6
:201F500002D07968216678602F4604F1580080E8C0004046FEF7B8FC04F138004FF0FF31AA
:201F700001F02EFEE4E74046FEF7AEFC97F8270010F0070FFAD102200021BDE8F081C0464E
:201F9000752E00002DE9F0470D4606465FFA85FA280824BF2E4845402E494FEA8A03C8585F
:201FB00085EA00023240C2F300672B4A06EA0504B043224006F4E0240243B4F5E02F01D182
:201FD000500E14D306F4E020074310D002F4E027B7F5A02707D0B7F5803704BF22F40032D3
:201FF00042F4A02203E022F4803242F4C022DFF86C80CA5008F1D00739680122002002FA89
:202010000AF40C4218BF101C5FEA000906D1F00D04D34146C5F3805001F80A00300E0BD336
:2020300001F06FFE290E34BF0021211C3A68A24311433960FEF798F9B9F1000F06D0F00D24
:2020500004D34046C5F3805100F80A10BDE8F087006000A000100840FF7F077F002002409E
:202070002DE9B043044601F04CFE81462748021992F8F010491ECFB2002F82F8F0703FD1E6
:20209000254901EB84014A880C78904634F07F0718D1E1090FD24FF0805000F5DC75D0F8AA
:2020B000B8018169104688472868416B404688470228F9D11EE000EB8800D0F80411002055
:2020D000884717E04FF08055D5F8B801016A10468847D5F8B801816A40468847D5F8B801B4
:2020F000016B404688470A4901200860094908688008FCD304F03F003F2801D0FFF7B0FF0A
:202110004846FEF731F90020BDE8B0838C0800202820086028200840403F00001F4838B543
:202130000468B4F1FF3F08BF002401F09BFA032833D12448244B1A4A00250121103805606D
:2021500003F15C00214B0160181D11600068806C80471448006820B113480068204600F0E3
:2021700021FA124812490560124C0A686FF35B4244EA0200086010490868C0F301300128DD
:2021900006D10A680D48104040F400320A6008600B4908680028FCD138BDFEE71C130050F7
:2021B0000822044380012843000120438C210840482003400000390104000940FFFFFCFC31
:2021D0000C0068429404604200600C40EC010010F8B5064601F095FD264D0746A91991F8CF
:2021F000F000421C002881F8F0203ED1224C04EB8604267806F03F003F2801D0FFF7E8FFF2
:20221000648836F07F0018D1F0090FD24FF0805000F5DC75D0F8B801416920468847286815
:20223000416B204688470128F9D11EE005EB8405D5F804110120884717E04FF08055D5F899
:20225000B801C16920468847D5F8B801416A20468847D5F8B801C16A204688470749012099
:202270000860074908688008FCD33846FEF77CF80020F8BD8C080020403F00002820086030
:20229000282008402DE9F84301F03BFD264C814694F8620100283AD000260121324694F87E
:2022B000623101FA02F0184203D1521C032AF6D32DE094F8623110209040184218BF0E1C75
:2022D00094F86211112090408143D0B284F8621101F086FBD8B10168477C4568012E8846E8
:2022F00006D0017C022904D1C168490B01D302E08D6900F0E3F9012E19BF391C4FF0006388
:202310006FF0FE014FF0007340460022A8474846FEF72AF894F8620120B104F1F00000219B
:2023300001F007FDBDE8F883401100202DE9F04101F0E7FC244D214E804605F1E0000078F8
:2023500048B93446A168022088470746102000F083FF77B31BE001F0A9FCC0091BD21B4835
:202370003C380068C4681648342101220023A04788B100F049FB34460020A16885F8E000F8
:20239000022088470746102000F066FF8FB1A168032088470DE00B4800683221B1FBF0F1A7
:2023B00001B901213035284601F0A5FC284601F0A4FC4046FDF7D8FFBDE8F08134400000F2
:2023D00000A00C407C1800208C080020E0010010F0B520480127F84201D000F043FE204DCA
:2023F000204F214EBD4206D203CD0478A4003459401CA047F6E71D48002800D08047164DF4
:20241000164FBD4202D210CDA047FAE7F0BD03251BE0416808300A1C2A400BD11A1C2A4012
:20243000AB4305D0046804300C600431043BF9D1131C05D0047801300C700131013BF9D11A
:20245000021C2A4001D0A84304300368002BE0D17047C046FFFFFFFF0000000000000000F4
:2024700040430000A8430000F842000015C40110002A4AD05FEA000C8B071CD1830722D125
:20249000102A08D370B4103A78C978C0103AFBD270BC103238D0042A2CD3082A05D30C2A36
:2024B00024BF08C908C008C908C008C908C092072AD0920F22E00B780370491C401C521E01
:2024D00022D08B07F7D1C30714D18307D8D0121F12D308C903801B0C4380001D121FF8D253
:2024F0000AE008C903701B0A43701B0A83701B0AC370001D121FF4D2121D05D00B78037048
:20251000491C401C521EF9D1604670472DE9F8432020EFF3118780F31188214CA0680121A5
:2025300001F0A8FC4FF001094FF0000865692168A4F81C906A1A2168A4F81E80461B401AC5
:20255000904227D387F3118840462D18361A4846294601F08BFCB042F7D92021EFF311877F
:2025700081F31188E18B012903D14046294601F07DFCB0F1FF3F06D0A169801B814238BF61
:20259000081C291801E0A069411901F06BFCA4F820902560A4F81C8087F31188BDE8F883EE
:2025B00078010020204A2DE9F04180460124A2F13000046019480768002FFCD01B49184D1B
:2025D000C0200B1F28601868800806D253F8040C144B000C40F0F000187000204FF08057D5
:2025F0001060D7F8F0010E68016830468847D7F8F0014268314640469047D7F8F001816890
:2026100030468847D7F8A001C1680220884740202860074E3460BDE8F081C04694022243F3
:2026300000600C405662084040100940B43F0050940460422DE9F8431F4C04F13C001C4D72
:2026500006681C48011F0A681540EB430B600A681542FBD10368076803F0200307F4602711
:202670002B4014D09EB106F1180090E80003266400211A00183641EA080804F1BC0042EAF7
:2026900009094FF4005186E8000301F052FB17EA05000AD094F8621141EA504084F862015C
:2026B000002104F1F00001F044FBBDE8F883C04620000E000C100440401100202DE9F04168
:2026D000074601F01EFB804687B3787C1A4D012404FA00F1CEB22968490811D3174900F18D
:2026F000110204FA02F5091F0B1D1A68AA4300F111051A60234603FA05F20B6893430B6071
:202710000F4D8440002305F5B0710888BB7404430C80384619460A4601F084FA95F863012C
:20273000401E85F86301304600F00CF84046FDF71BFEBDE8F081C046402108400C10044028
:2027500040110020F8B5064601F0DBFA07461A4D1A4C287830B3297886F0FF0001402970AC
:20277000287800091ED2287830F07F001AD12878C0B12046A6300078A0B9684600F0E6F9EB
:2027900080B1009870B100220126D0B201F028F918B1817C022908BF8674521C032AF4D34E
:2027B00000202870287818B92046082101F0C1FA3846FDF7D9FDF8BD84180020FC110020BF
:2027D000002213460A46194671B510F0030F0BD0002A82BF00F8011BB2F1010210F0030F75
:2027F000F6D1002A08BF71BD11F0FF0141EA0121042A18D341EA0141082A0FD30E46102A6D
:2028100008D30C460D46B2F10F0312F00F0272C0103BFCD812F0080F18BF42C012F0040F08
:2028300018BF40F8041B12F0020F18BF20F8021B12F0010F18BF017071BD70472DE9F047AF
:202850000F1C04462FD0DFF86480194D4FF0010A4FF00009D8F8000080473E46B6F5807F7C
:2028700088BF4FF4807685F800A085F8019029462246300AAE703346E870F32000F004FA9C
:202890002846494600F019FA6978287800EB012006B2D8F804008047002E04DDB74202D36B
:2028B000BF1B3444D6D1BDE8F087C046B40C0020741800202DE9F8438146EFF3118820208E
:2028D00080F31188174D154C134F012605F11C000660A4F114000660F86A016A1420884737
:2028F000D9F81000810C14BF000C04202060386802682321002090470948066054F8180C6B
:2029100020F4C02040F4803044F8180C2E6088F31188BDE8F883C046840100101820094091
:202930008002244300002443B0B51A4C0546241D20680004070C27D0144800680068804757
:20295000134991F90720824205DD10F1800FB8BF6FF07F00C871BD422CBF01277F1B8D88D5
:20297000BD4210D80A68D4F8D40F801A801C1F2888BF1F207F1B4008C7404FF6FF70EF1997
:20299000B84238BF071C8F80B0BDC046EC0100106C18002030100940174810B50068016872
:2029B00004208847022821D003281FD001281AD012480068C0F38150032805D002280CBF91
:2029D00041F28832322201E04FF47A720C490D4C09684C342046B2FBF1F101F08CF9204626
:2029F00001F08BF910BD00F017FD10BD00F014FD022000F0A1FD10BDE0010010B43F005002
:202A10007C1800209408002038B54FF08055D5F8E001016801208847012822D0D5F8A401A1
:202A3000C4681148342101220023A047002808BF002017D0D5F8800000F0D6FED5F88C011E
:202A5000C06A80470A4A094C93681168D060C01AA1EB910104FB00F3180C884228BF011C4C
:202A70001160012038BDC04600A00C4040420F005018002098B5164C94F8E100002710B9A8
:202A90001448007860B101F03CF994F8E310002906BF012184F8E3100127FDF765FC0FB1E0
:202AB000002098BD022000F095FD0E20FFF790FB094A106848B909494020C8600860012708
:202AD000D761002084F8E20098BD012098BDC0468C0800204940000004800C402C500C408A
:202AF000012898B527D116480068016801208847012820D000F0A0FE134C012104F1D80044
:202B1000017001F0D3F8800917D20E4800683222B2FBF0F707B90F46083C04F1300001F0F1
:202B3000EEF804F13000394601F0E5F804F1300001F0E3F801E000F04BFB002098BDC046AA
:202B5000E00100107C180020940800202DE9F843DFF86090164F054600264FF0FF304FF069
:202B7000190834462860E0B200F03AFFB0B1837CA3B1017C0126022914D0494691F8632164
:202B9000C9688068C96808FB021100F097FD39682B68B0FBF1F0834288BF2860641C032C3E
:202BB000E1D301E0002028603046BDE8F883C0467C18002040110020164880B507683FB313
:202BD00015498B6803EA5300C00E21D2134A106880081DD2486880081AD21068096810F03A
:202BF000050F4FEA114101F0F00101F5E0710AD1B9420DD2190F38BF40F00100D90E38BF1A
:202C100040F0040003E0B94202D920F00500106080BDC04628500940AC3F005000000940AA
:202C3000F8B5844640F6FF741CF8013B002210E0481B401E10F8015B7F1E01F8015BF9D121
:202C500003E01CF8010B01F8010B521C5B08082AEADA5808F5D21CF8010B1CF8015B05F0E9
:202C70000F07FF1CC5F30315122F45EA001508D11CF8016B300A24BF1CF8010B60F3DF16E0
:202C9000BF19AC42D4D1F8BDD0B51E4603461748082706600446037111F8013B7F1E63716A
:202CB00004F10104F8D136B112F8011B761E417300F10100F8D100BFD0BD84460B48E0B533
:202CD0000D460827014606680A797F1E01F101010CF8012BF8D13DB136B1017B761E00F1CA
:202CF000010005F8011BF8D1E0BDC046E8150020084608B500F0005100F0040008431CD0AA
:202D10000E480068016801208847104A01280ED00B4801683220B0FBF1F3012B8CBFB0FB6C
:202D3000F1F101211046743000F084FF08BD054800F09EFF04491046086008BDE0010010B2
:202D50007C1800203D00000000100440641100201348144A14490078801E0A2807D8DFE885
:202D700000F019140F06140F06140F0607C0FEE710688008FCD250688008FCD2FEF78CBDF9
:202D900008688008FCD3FEF787BD08688008FCD2FEF782BD10688008FCD3FEF77DBDC04625
:202DB0007009002034600C4038600C403EB5401E4FF000040AD0401E04D0401E1CD1FEF7C6
:202DD0006BFD19E0FFF756FE044615E0684600F085FF01940B4D8DF800400849029401221B
:202DF0006B4605F1780000F063F9054A2C21234605F19C0000F0B4FA20463EBD612D000034
:202E1000810300008C080020154909681F280ADC1F2819D00C380FD00B380FD0001F0FD0FB
:202E3000C01E0FD01AE0253810D0001F10D0401E10D0001F10D011E0086870478868704793
:202E5000C8687047086970474869704788697047C8697047086A7047486A704700207047F2
:202E7000F00100202DE9F0410446276E1E461546884607B1B84704F1580003C805400E401C
:202E900008BF002D19D04046802100F0BBFB04F1680181E8600050B100F1180106C900F186
:202EB0001803B243A94383E80600216E41600020206604F1380000F036FFBDE8F0817047A0
:202ED00010B500F01EFF104CE178B9B9FDF74CFA0E480068006B80470D4A002300F002FE55
:202EF000626B002314001B184FF0905244EB01047A21D01841EB04010C1C03E005490C68B5
:202F1000FDF732FA204610BD401100208C01001000093D000430044038B5134CE078F8B92D
:202F3000207901281FD000F0ECFE0546684600F0E7FA88B1607960B9009929B904F1BC00D5
:202F5000042100F0F6FE07E004F1980000F072FE02E00649012008702846FDF705FA38BD64
:202F7000192000F0D2FE38BD40110020851800201349B0B5054601F135000768CFB1BA68E1
:202F9000107B012400F00F00022818BF002012D19068C91EFA6891F86331D268192707FB94
:202FB000032100F08BFB054909682860B0FBF1F001E00020044628602046B0BD7C1800203A
:202FD0004311002038B5FEF7ABF9104C00213C22082304F14805284600F040FF4FF48060DF
:202FF0000221A06604F16000016000F5887009496066074800232A46A06504F1840000F08D
:2030100029FF00F023FF002038BDC0460802002040420F00391A0000042838B51CD10F4CDC
:2030300004F19800054600F0DDFDA8B1284600F060FE0B4909684843B0F5967F0CD2284673
:2030500000F05DFE052000F0C5FA2046012101720421BC3000F06DFE002038BD4011002054
:203070007C180020F8B506460F4D104F7388002417E0A20002EBC402921951689068D268D7
:2030900052B9AF420BD00A7855F822200346491C08461946904701E0FFF7EAF97388641CD1
:2030B000A4B2A342E5DCF8BDF842000004430000F0B515460E4604461F1CADF1240D08BF5F
:2030D000002308D0684600212422082300F0BAFEB8686B460690204631462A4600F0AEFEAD
:2030F0000348044F0168204609B03960F0BDC046804000007C1800202DE9F0418046D8F8FD
:2031100000700E460025144635603FB900F0F9FDC8F800600CB1012121700BE004B1257024
:2031300000F0EFFD00E03F6839680029FBD1BE4201D03E600125FDF717F92846BDE8F08169
:2031500008B500F077FE012801D000F06FFE0A4800F068FE0B48006828B1084800F012FD5B
:20317000074800F012FD00F059FE00F053FE00F04DFE00F047FE08BD253700001939000086
:20319000253B0000B401002098B50C4600F07CFD002700B101270D4808300068C06A8047FC
:2031B000211AB1F1004F08D8011B891DC90F05D1801DA04288BF041C00E0841D024804606E
:2031D0000FB900F067FD98BD182009408401001038B50E4DD5F8600142680021032090471D
:2031F000D5F8600101680120884710B1286800F0FBFAD5F80C01C06A8047054CD5F86C317C
:20321000083C606018688047206138BD80000010581800200C4885460C4885446F460720A5
:203230008743BD460A486F4607600A48002803D07946491D8E460047FFF7CAF800F046FCCC
:2032500000F0DCFDFEE7C0460041002000030000B40A00205939000038B50F4C05462046DD
:2032700000F00CFDA8B9204600F053FD0446A068054209D0E3682269284600219847002860
:2032900018BF4FF0FF3005D1204600F044FD041CEDD1002038BDC0468C08002070B500F0AA
:2032B000A9FD06460B480C4C05682089012806D10A496268206809688018891AA847206883
:2032D0006168A847002060602081304600F08EFD70BDC04688400000A80C00208440000021
:2032F0002DE9F04100F023FD0C4D00240126804605F1980706FA04F018EA000F06D057F83E
:20331000240018B102680AB1214690472868641CE4B28442EED9BDE8F081C046780700205F
:2033300070B500F0EEFC06460B48E030007850B10A483C380068C568064800243421012211
:203350002346A84700B101243046FDF70DF8204670BDC04600A00C408C080020E001001096
:20337000F0B514460D4606461F1CADF1340D08BF00230DD0684600213022082300F032FD53
:203390007B680893386805903A7AADF818206B4630462946224600F05DF80DB0F0BD704775
:2033B0000D4938B5D1F8EC3209681B3800FB00F409060A161906091604FB01F543F3072160
:2033D0004143C910604301EBA521424301EBA24000EB234038BDC046A4100050B0B50C46D4
:2033F0000546171CADF1280D08BF00220ED0684600212822082300F0F1FCFA6807923868E9
:2034100004907B680593B96806916A462846214600F010FB0AB0B0BD7CB54FF08056D6F81A
:20343000A4010B4D446800214FF040521C23032000902846A047D6F8A401446800214FF417
:2034500000720923012000902846A0477CBDC04600A00C40F8B507460A480B4C0668E06933
:203470008D00285886420AD108480090384600F0B1FCE0692858864218BF381C00D10020E4
:20349000F8BDC0461812000044010020080C00202DE9B0430F46044600F07EFB04F128026E
:2034B00092E800034B464246FDF732FC05460B462A464046494600F015FB17B1303484E88B
:2034D00003002846BDE8B08398B504460B48076887B100F08FFC08494A68531C4B600B68F7
:2034F000D4544A68974203D100224A6001270F8100F07CFC98BDC046A80C00208440000056
:203510003EB505466846FFF733FD044601A8FFF71DFB012C03D0012806D0002107E028B1A8
:203530000199009A914201D8019900E0009920432960C0B23EBDFEE710B5044600F0E1FB6F
:20355000094B083BE21892F8E910491EC9B282F8E91021B99A680121A1408A439A60FCF759
:2035700003FF002010BDC04694080020094910B500200A4C08600120C861143420602168FA
:2035900044F8280C04480068016A14208847206810BDC04600002443B00100101820094085
:2035B00070B5044604F128020CCA0846002100F099FA04F1300292E860002D1846EB010627
:2035D000290C30040143FFF7DFFD383484E8600070BDFEE738B5044600F093FB084A02F118
:2035F00008031D680121A14012192943196092F8E910491C82F8E910FCF7B6FE002038BD01
:203610008C080020024608460949082310B5B1F92440A24206D118B191F82740204201D059
:20363000084610BD5B1E01F12801F0D1002010BDA812002010B504460848006860B134B186
:2036500001E0FFF741FF14F8010B0028F9D10448008808B1FFF722FE10BDC04684400000FF
:203670008C400000094801684BF69A120901B2EB114F07D100680B21B1EB107F14BF002036
:20369000032070474FF0FF307047C0461813005030B50D460446242208230021ADF1240DB7
:2036B000684600F093FB012029466A468DF81800204600F087FB204609B030BD38B50D46CD
:2036D0000446FFF7FDFB05F57A71241AA008814203D26FF05041814201D2002038BD401B49
:2036F000012898BF012038BD10B50C4608490978002908BF012009D000F04EF804B12060E6
:2037100000F0FF0001280CBF8120022010BDC0464311002008B500F051FB00F04BFB03205A
:2037300000F044FB05481030006820B1024800F029FA00F02AFA08BDA33B0000A4010020AB
:2037500038B52020EFF3118580F31188064CA068002100F08FFB6169081AA169814238BF03
:20377000002085F3118838BD7801002038B50446EFF31185202080F31188A08A012806D155
:2037900000F010FBE168A368081A834200D2002085F3118838BD7047084910B50246A1F144
:2037B0001C0318680028FCD100240C601A60D8690028FCD00C60586810BDC0461C100440B7
:2037D00010B50C4601461046224641B138B1C8608A6004480B6100F065F8002010BD6FF07F
:2037F000020010BD8C08002070B5054600F04CFA002400B90124054E30680028FCD0A847C0
:20381000012030600CB100F045FA70BD00800C400748084908B59C22FEF72AFE4FF0045136
:20383000002081F85903012081F8740308BDC04648040021A43E000010B54FF08054D4F8B4
:20385000E0014268012103209047D4F88C01C06A80470149086010BD5818002008B500F0AB
:2038700005F90549014205D004484FF000519C3000F05FFA08BDC046020000406011002045
:20389000074908B5283090E80C000020FDF740FA002908BFB0F1FF3F88BF4FF0FF3008BD98
:2038B000907E000038B50C46054600F02AFA0021216069686160696801B929460C606C60E6
:2038D000FCF752FD38BD000010B500F073FA054C20600348006808B18047606010BDC046E8
:2038F000784000006418002010B50548054C016811B1201D00688847206800F04FFA10BDD4
:203910007C4000006418002010B5064C206900F041FA0146A06800B9E160A068401CA060C7
:2039300010BDC046A4010020054808B54168054801220838026048698969884708BDC046DD
:20395000E40100200C20094008B5FEF7E7FB044804490068814201D0FFF7EDFD08BDC04609
:20397000009B011042726E79054808B5026822B1044800680021FEF727FF4FF0FF3008BD86
:2039900084400000A80C002002294FF0000204D0012808BF4FF47A7203E0012808BF40F21B
:2039B000EE22104670470000002948BF0021044A02EB8000026861F3050202607047C046EA
:2039D000001008400348016803480160034800F0B0B9C046E0200240E0200260DC070020CE
:2039F000032807DA044B810001EB0010A3F144014018704700207047A812002010B5044637
:203A100000F07FF903490A7814430C70FCF7ACFC10BDC04684180020044808B5006820B121
:203A3000034800F0AFF800F0B0F808BDB4010020AF330000054B10B5044600F0A7F9A06889
:203A5000002814BF201C002010BDC046080C00200448008820B10448006808B1FFF71EBC16
:203A70007047C0468C400000844000000449091D0868C3430B600A681042FBD17047C04648
:203A90000C100440044908B591F8E60018B1D1F8100100B1804708BD8C08002038B5054671
:203AB00000F02FF92C680CB121682960FCF75CFC204638BD012814BF002040F2FF700249CD
:203AD000086000207047C046000004600449B1F1FF3F07BF0020011C0868091DFFF772BA45
:203AF000FFFFFFFF30B502FB01F403FB00444FF00005E2FB00542146284630BD10B5044C55
:203B100000F015F90146226AE068904710BDC0464011002004498868401E886003D1086999
:203B3000C96800F02FB97047A40100202022EFF3118382F31188426A1143416283F3118878
:203B500000F01CB908B5C068B0F5803F04D1FFF763FF032000F02AF908BD10B50446FFF71A
:203B70005BFF032000F022F9204600F047F910BD034938B53CC93CC00EC980E80E0038BDCE
:203B9000184000000349086070470249091D086070477047B40C0020034808B50830006883
:203BB000006B804708BDC0468401001008B500F0E1F80248006800F0E1F808BD84010020F8
:203BD00008B500F0D3F8002814BF00206FF0010008BD00B50A21ADF12C0D684600F0C2F80E
:203BF0000BB000BD10B500F0AAF8002400B10124204610BD002101604FF0FF314160012105
:203C100001727047002101604160C1604FF0FF318160704702480421AC3800F08AB8C04694
:203C3000A812002010B541600274C36000240460846010BD10B5044600F05DF8204600F0B8
:203C50005CF810BD102802D3014910380860704700EF00E0D0F80320C31D08461946FEF739
:203C700007BC08B5FFF798FF000C0904084308BD014908607047C046601100200146096846
:203C9000002001B901207047EFF3108072B6704700207047EFF3108062B670470020704722
:203CB00000FB00F1C0EBA15000B27047014800687047C046940800200149F031085C704753
:203CD0008C080020D0F8032008460021FEF77CBD014880687047C046C801002000218160BF
:203CF00070470820FEF72EBD81604260704730BF7047FFF73BBD00F0C9B800F0C3B800F05B
:203D1000BDB800F02BB800F025B8FFF79BBFFFF7EBBF0068704700687047FEF707BB006831
:203D30007047FFF777BA00F011B800F047B8FFF7CFBFFFF7FBBE00207047FFF769BD808ABD
:203D50007047FFF777BCFFF783BE0000DFF800F0E1A30110DFF800F089AF0110DFF800F009
:203D700085BF0110DFF800F029C10110DFF800F0059B0110DFF800F043B80110DFF800F00A
:203D900011B00110DFF800F095C00110DFF800F079AD0110DFF800F091C00110DFF800F026
:203DB000F5B70110DFF800F09DB20110DFF800F0A1BE0110DFF800F031BF0110DFF800F049
:203DD00011BF0110DFF800F05DB40110DFF800F009C00110DFF800F0BDAA0110DFF800F062
:203DF00015C00110DFF800F079BF0110DFF800F089C70110DFF800F095C70110DFF800F09A
:203E1000D5C60110DFF800F025C10110DFF800F085C00110DFF800F04BC00110DFF800F061
:203E3000E9B40110DFF800F081C50110DFF800F083A60110DFF800F069C70110DFF800F0D6
:203E500069B20110DFF800F0C1BF0110DFF800F0B1BE0110DFF800F019AE0110DFF800F021
:203E700021C00110DFF800F0A9BC0110DFF800F0F1A20110DFF800F0E1BE0110DFF800F05A
:143E9000B9BA0110DFF800F01FBE0110DFF800F0E5C0011068
:203EA400A9040021D104002110B5014800470000D5090000F8B5184C1848254660352F7BEC
:203EC40000262E7380472F73697B014317D1002F15D0617E00290ED0214620310A7C53080B
:203EE400DB0700D12676236A497B002B01D104231943114202D0217DC90600D4E675F8BD28
:203F0400054940310871082804D0054980004018C0687047034870474401002167A70000E6
:203F240080DF00005D04002110B5034CFFF7BCFF20680028FAD110BD001104408F000000AB
:203F44008F0001008F0002008F000300900000018F00010190000002900000038F000104CF
:203F64008F0000058F0008048F0000048A000006510000007F0001003F0004003F00020096
:203F84003F0001007F0002007B756E6B6E6F776E2D696E7374616E63652D6E616D657D0004
:203FA4007B656D7074792D696E7374616E63652D6E616D657D00C0467B7374617469632D50
:203FC400696E7374616E63652D6E616D657D00C08FC701107939000079BA0110CDAF011093
:203FE4007FC0011005AA0110B5AE011045B8011019B901105DBE0110014000800200C08019
:20400400FE00000080180020744000000000000000000000FFFFFFFFC40900000000000069
:204024000000000001003A01000000000000000000000000CD1D0000BD2D0000000000006C
:204044000000000100010000010001000000000000000000000000000100000035B201105F
:2040640071A101106DB50110953A0000953A00000800000011BF0110EDA601100A000000B1
:0B408400800000004D2800000100003B
:20409000002B01000003AA000F0CBB000F0C0444E4006F810E75F501768572AF05C53A0091
:2040B0007F00F12A0000473D7903AFA00900200031A80034B0AA0034B80034C00034C8009B
:2040D00034D0AA0034D80034E00034E80034F05A0034F80034000A003308003495100034B6
:2040F0001800342000340C3904BE7E65020000E81301B353E7C001100F3F06815538403593
:20411000FF002D400140028460FB005D007000F80118A3FF84070083057EA403FF06E0EA7A
:2041300023060100C3FF0038010304010235FE027008047F17630400FF38AC526003A30255
:20415000AD3F0163026801FF000005FF02DBC5A78C03BD3B1717780C4300200175027D02B5
:20417000F58F714B16B4BA0D22088C3D58256C123005CF1800004804F00F632500CBA80B03
:2041900011334C0F5894330100915401B0003101BF027003700031785600341D2593370F96
:2041B000983180943B5C187195571F00280834C008B41E97159C01002000319C7126294BA8
:2041D000BFBD1973E80AF00031F0003485F80034000D31127015579C3F045551AA00119DD6
:2041F000FF0811F16009362611F6E413713047271376A2953939003B0003A7B0FF0014A852
:20421000132450C61821400D0F7426C01921D017A21077A31E300031AB21EE0002005300D7
:20423000C81EB00031D00034D8003455E00034E80034F00034F80034A900067106B00800E4
:204250003410003418020034200034AD9930F3FFF000FD000000380D0020BC0C67002030FB
:20427000007000F100410070FD030092200101000008011701740044FFF000F301000007A5
:2042900000B9E80B0020EC01A80252340D0133340100052000313C0034FFF0009D0000015C
:2042B0006CDC02007200C05CEF0B00200300C45131001F006B3B0000FFF000FD000004B846
:2042D0000A0020780B47002001010000310029C80170000031FFF0007B0100000F00A009D1
:2042F0000020016100FFF000312C0000653C0000D53C0000003D000000B80A0020FFF00020
:204310001F280D0020000000FFF000030000FFF002000000470B0000000F08000000FFF0DE
:204330000001000000FFF00001000004FFF000009040000008020020614200004401002087
:204350008A42000000010020AB420000A4010020CA42000078010020E7420000C8010020F7
:2043700004430000E40100200F430000F80100201A4300000402002020430000400D002023
:18439000284300000002002030430000EC01002037430000F00100207D
:020000040001F9
:20FFA80000008001100082FFFDFF58003AFFBFF3FFFFFFFFFFFFFFFFFFFFFFFFFFFFFFFFF8
:20FFC800FFFFFFFFFFFFFFFFFFFFFFFFFFFFFFFFFFFFFF00FFFFFFFF00FFFFFFC500C5FFAA
:18FFE800000000FF00000000FFFFFFFFFFFFFFFFFFFFFFFFFFFFFFFF12
:00000001FF
